:100000000C9424020C944C020C944C020C944C0260
:100010000C944C020C944C020C944C020C944C0228
:100020000C944C020C946C1A0C94F3170C946218F8
:100030000C944C020C944C020C944C020C944C0208
:100040000C944C020C944C020C944C020C944C02F8
:100050000C944C020C944C020C944C020C94221AFA
:100060000C944C020C94F0190C94CA190C944C0288
:100070000C944C020C944C020C944C020C944C02C8
:100080000C944C020C944C020C944C020C944C02B8
:100090000C944C020C944C020C944C020C944C02A8
:1000A0000C944C020C944C020C944C020501090671
:1000B000A1018501050719E029E715002501750152
:1000C00095088102050C95017508150026FF001999
:1000D0000029FF810005081901290895087501917B
:1000E00002050795067508150026E700190029E79F
:1000F0008100C005010980A1018503150026FF00CC
:10010000190029FF950175088100C0050C0901A19E
:1001100001850275109502150126FF0219012AFFBB
:10012000028100C00000000000000000000000008C
:10013000000000002A002B00280000000000000042
:1001400000000000000000000000000000000000AF
:10015000000000000000000000000000000000009F
:10016000000000002C001E023402200221022202A4
:10017000240234002602270225022E0236002D001A
:100180003700380027001E001F0020002100220039
:1001900023002400250026003302330036022E00FF
:1001A000370238021F020402050206020702080293
:1001B00009020A020B020C020D020E020F021002CB
:1001C000110212021302140215021602170218027B
:1001D00019021A021B021C021D022F0031003000FE
:1001E00023022D0235000400050006000700080068
:1001F00009000A000B000C000D000E000F0010009B
:10020000110012001300140015001600170018004A
:1002100019001A001B001C001D002F0231023002C1
:100220003502000000000000000000000000000097
:1002300000000000000000000000000000000000BE
:1002400000000000000000000000000000000000AE
:10025000000000000000000000000000000000009E
:10026000000000000000000000000000000000008E
:10027000000000000000000000000000000000007E
:10028000000000000000000000000000000000006E
:10029000000000000000000000000000000000005E
:1002A000000000000000000000000000000000004E
:1002B000000000000000000000000000000000003E
:1002C000000000000000000000000000000000002E
:1002D000000000000000000000000000000000001E
:1002E000000000000000000000000000000000000E
:1002F00000000000000000000000000000000000FE
:1003000000000000000000000000000000000000ED
:1003100000000000000000000000000000000000DD
:10032000000000000600FF0901A101851095067577
:1003300008150026FF000901810009019100C0068F
:1003400000FF0902A101851195137508150026FF0C
:10035000000902810009029100C0000000020009AA
:100360000F0000030401000C00000000000000006A
:100370000000000000000000000403090412010056
:1003800002000001406D0447C50204010200014C57
:100390006F676974656368005553422052656365F1
:1003A000697665720000000000240027002A002DF5
:1003B000003000000000002300260029002C002F40
:1003C0000000000000250028002B002E0031000452
:1003D00004040404030405020202020403020202EC
:1003E00002060606060606040402020204040408C5
:1003F000020110408040102040804080080204012B
:10040000804020100201108010204040200501098A
:1004100002A1010901A1008501050919012905159C
:10042000002501950575018102C0950175038103C1
:1004300005010930093109381581257F75089503B3
:100440008106C000DF1BB82411241FBECFEFDAE005
:10045000DEBFCDBF24E0A2E1B2E001C01D92A13D0C
:10046000B207E1F712E0A0E0B1E0E8E2F2E502C095
:1004700005900D92A231B107D9F712E0C3E2D2E0A4
:1004800004C02197FE010E94EF26C232D107C9F7AE
:100490000E94631E0C9407290C9400008CBD9DBD26
:1004A0000895FC0180918002882311F13FB7F894F0
:1004B00082E08093E9002091F200822F90E01816EC
:1004C000190614F481E090E0882339F0289844E676
:1004D00040937F024091F1004083222339F0209124
:1004E000F200211103C02BE62093E8003FBF0895DE
:1004F0008FEF9FEF089508954091690250916A022D
:10050000209167023091680242175307B4F490912A
:10051000E8009570E1F39091E80092FD19C0809396
:10052000F1008091690290916A0201968F73992778
:10053000892B19F48EEF8093E800809169029091E5
:100540006A02019690936A028093690281E008959D
:1005500080E00895DF92EF92FF920F931F93CF9365
:10056000DF93D82E8A01EB017B01E40EF51ECE1538
:10057000DF0559F0D7FE12C0FE0184910E947C0273
:1005800021968111F4CF0FEF1FEFC801DF91CF91BA
:100590001F910F91FF90EF90DF9008958881EECF2B
:1005A0002FB7F89487708093E9009091E800892F25
:1005B000807295FF04C09091F20080E4891B2FBFE8
:1005C0000895615030F02091F100FC0120830196E4
:1005D000F8CF289884E680937F020895AF92BF9267
:1005E000DF92EF92FF920F931F93CF93DF935C0103
:1005F0008B01EB019BEFD92E2097C1F07E01C13416
:10060000D1051CF080E4E82EF12C8091E80082FFF7
:10061000FCCFC8018C1B9D0B6E2D8A0D9B1D0E946B
:10062000E102D092E800CE19DF09E6CFC801DF91E0
:10063000CF911F910F91FF90EF90DF90BF90AF90FF
:100640000895AF92BF92CF92DF92EF92FF920F93F5
:100650001F93CF93DF936C017B018B01040F151F58
:10066000EB015E01AE18BF08C017D10759F06991C0
:10067000D601ED91FC910190F081E02DC601099524
:10068000892B79F7C501DF91CF911F910F91FF90D1
:10069000EF90DF90CF90BF90AF90089580915F0270
:1006A00081110CC010925B0284E080935C02109276
:1006B0005E0210925D0281E080935F028BE592E022
:1006C00008950F931F93CF93DF931F92CDB7DEB79B
:1006D00019820E944E03DC0112960D911C910115A6
:1006E000110589F0D801ED91FC910280F381E02D94
:1006F000BE016F5F7F4FC801099597FD04C0F801E7
:1007000000851185ECCF89810F90DF91CF911F91EA
:100710000F910895CF93DF93FC01DB018181149643
:100720003C911497682F630F7727771F6830710506
:100730009CF5C281D381209739F5B383A283908140
:1007400012969C93129713968C93139715968C91EF
:100750001597890F808390E080E0831708F5218149
:10076000C22FD0E0BE01645F7E4F16964D915C9122
:100770001797480F591FEA014881EB0148832F5F03
:1007800021830196EACFEA01488559854115510533
:10079000D1F7B987A887D3CF80E0DF91CF910895B3
:1007A00081E0FBCFFC01538D448D252F30E0842F59
:1007B00090E0821B930B541710F0CF960895019789
:1007C0000895FC01918D828D981761F0A28DAE0F76
:1007D000BF2FB11D5D968C91928D9F5F9F73928FFD
:1007E00090E008958FEF9FEF0895FC01918D828D29
:1007F000981731F0828DE80FF11D858D90E00895F6
:100800008FEF9FEF0895FC01918D228D892F90E04D
:10081000805C9F4F821B91098F739927089582E80E
:1008200092E00E94030421E0892B09F420E0822F4A
:10083000089580E090E0892B29F00E940F04811137
:100840000C9400000895FC01A48DA80FB92FB11DD0
:10085000A35ABF4F2C91848D90E001968F739927F6
:10086000848FA689B7892C93A089B1898C918274D1
:100870008C93938D848D981306C00288F389E02DA4
:1008800080818F7D80830895EF92FF920F931F9355
:10089000CF93DF93EC0181E0888F9B8D8C8D981333
:1008A00019C0E889F989808185FF14C09FB7F89441
:1008B000EE89FF896083E889F98980818274808369
:1008C0009FBF81E090E0DF91CF911F910F91FF904A
:1008D000EF900895F62E0B8D10E00F5F1F4F0F73F2
:1008E0001127E02E8C8D8E110CC00FB607FCFACFAD
:1008F000E889F989808185FFF5CFCE010E94230424
:10090000F1CFEB8DEC0FFD2FF11DE35AFF4FF0827D
:100910009FB7F8940B8FEA89FB8980818062CFCFE3
:10092000CF93DF93EC01888D8823B9F0AA89BB8926
:10093000E889F9898C9185FD03C0808186FD0DC011
:100940000FB607FCF7CF8C9185FFF2CF808185FF32
:10095000EDCFCE010E942304E9CFDF91CF9108951E
:10096000CF93DF931F92CDB7DEB76983DC01ED91A2
:10097000FC910280F381E02D41E050E0BE016F5F09
:100980007F4F09950F90DF91CF91089583E0809379
:10099000E9008091F200882319F08AE38093E8004F
:1009A000089583E00E94D00290E00895CF93DF93F2
:1009B0001F92CDB7DEB7FC018485958597FD08C0F1
:1009C0002FEF3FEF358724870F90DF91CF91089568
:1009D000CE0101960E945102019719F4898190E09D
:1009E000F3CF8FEF9FEFF0CF0F931F93CF93DF9352
:1009F0001F92CDB7DEB78C01FC018485958597FFEA
:100A00000BC0CE0101960E945102019771F48981B9
:100A100090E0F80195878487F801848595850F908B
:100A2000DF91CF911F910F9108958FEF9FEFF1CF3D
:100A3000FC018485958597FD0BC09FB7F89482E0F3
:100A40008093E9008091F2009FBF90E001960895A5
:100A50009FB7F89482E08093E9008091F2009FBFF5
:100A600090E00895282F30E0F901E65AFC4F949168
:100A7000F901E251FC4F849121533C4FF90124913B
:100A8000222309F430C09923E9F091509F30D0F42B
:100A9000E92FF0E0E25BFA4F0C94EF267C0580052D
:100AA0005D057405780562056205620583058905A3
:100AB0008D059105970562059B05909180009F77B4
:100AC00090938000E22FF0E0EE0FFF1FEF53FC4FFA
:100AD000A591B4919FB7F894EC91611132C08095C3
:100AE0008E238C939FBF0895909180009F7DE8CFC7
:100AF00090918000977FE4CF94B59F7794BDE2CF2B
:100B000094B59F7DFBCF909190009F77909390003C
:100B1000D9CF909190009F7DF9CF90919000977FD1
:100B2000F5CF9091C0009F779093C000CBCF90916C
:100B3000C0009F7DF9CF9091C200977F9093C20033
:100B4000C1CF8E2BCECFCF93DF9390E0FC01E2514B
:100B5000FC4F249181539C4FFC0184918823D1F058
:100B600090E0880F991FFC01EB55FC4FA591B491C3
:100B7000FC01EF53FC4FC591D49161110EC09FB79A
:100B8000F8948C91E22FE0958E238C932881E223B8
:100B9000E8839FBFDF91CF9108958FB7F894EC91D0
:100BA000E22BEC938FBFF6CF3FB7F89480915702BA
:100BB00090915802A0915902B0915A0226B5A89B73
:100BC00005C02F3F19F00196A11DB11D3FBFBA2FDF
:100BD000A92F982F8827BC01CD01620F711D811D9F
:100BE000911D42E0660F771F881F991F4A95D1F724
:100BF00008958F929F92AF92BF92CF92DF92EF9221
:100C0000FF924B015C010E94D4056B017C010E94A4
:100C1000D4056C197D098E099F09683E73408105D2
:100C20009105A8F321E0821A9108A108B10888EE85
:100C3000C80E83E0D81EE11CF11C81149104A104AC
:100C4000B10429F7FF90EF90DF90CF90BF90AF9065
:100C50009F908F9008957F928F929F92AF92BF92B4
:100C6000CF92DF92EF92FF920F931F93CF93DF9378
:100C7000C82E8B017A0180918002811110C08FEF04
:100C80009FEFDF91CF911F910F91FF90EF90DF9039
:100C9000CF90BF90AF909F908F907F90089580915C
:100CA0006C0280FF05C08091E00082608093E000CC
:100CB000CE2DDF2DD12C8AEFB82E8C2D8770982E5B
:100CC0008C2D8072882E8C2D8074782E9AE3A92E1C
:100CD000209719F4DD2009F452C08C2D0E94D00217
:100CE00081110AC0BA94BB2051F261E070E080E04B
:100CF00090E00E94F905ECCF8C171D0611F00CF066
:100D00008C2F9FB7F8949092E9002091E80025FD80
:100D100002C09FBFDDCF282F30E0C21BD30B88203D
:100D200029F08150A0F01092F100FBCFF801C7FC30
:100D30000AC0815050F041914093F100FACF4491A4
:100D40004093F10031968150D0F7020F131FDD2040
:100D500021F0A092E800D12CDCCF8091E80085FD45
:100D600007C0A092E800DD24D394209791F2F3CF3E
:100D7000209779F6772069F2A092E800CACF5D98B3
:100D800084E680936B02C7017CCF1F93CF93DF93E0
:100D900000D000D01F92CDB7DEB79091C8049983E0
:100DA0008A836B834C838091B20481112CC011E043
:100DB0001093A5041093A6048BEA94E09093A804E2
:100DC0008093A7041092AA041092A9048FEF91E0D7
:100DD0009093A2048093A1041092AD041092AC04ED
:100DE0001092AF041092AE041093B0041093B104AB
:100DF00081EC8093AB040E944E0361EA74E00E9490
:100E00008A031093B20481E08D8341E050E0BE017B
:100E10006B5F7F4F8091A4040E942B0697FD0AC050
:100E20008091A40444E050E0BE016F5F7F4F806476
:100E30000E942B060F900F900F900F900F90DF9154
:100E4000CF911F9108959091C80480958923981798
:100E500039F08093C80440E060E080E00C94C5065F
:100E600008959091C804892B981739F08093C8048D
:100E700040E060E080E00C94C5060895CF93DF93D6
:100E8000EC0180910B01882331F083E00E942B0656
:100E90001816190634F081E090E09B838A8380E085
:100EA00090E0DF91CF9108952FB7F89460915302AD
:100EB0007091540280915502909156022FBF08956F
:100EC000CF93DF93EC01FB012A8184819581281760
:100ED000190609F04BC081819081913A79F48130F3
:100EE00029F0833039F48F898093F10081E0DF911C
:100EF000CF9108958230D1F5888DF6CF9132B1F53A
:100F00008B3019F482818F8BF1CF8A3019F4828172
:100F1000888FECCF893051F566817781838183306A
:100F200079F48C8D9D8D6817790701F58A8D9B8DDD
:100F30000E94EE028C8D9D8D90689D8F8C8FD6CFF8
:100F4000823051F46130710589F461E070E0CE01C6
:100F500049960E94EE02CACF813041F46830710593
:100F600029F468E070E0CE010E96F3CF80E0BFCFA9
:100F7000FB0120812138B1F42381223299F4DC0174
:100F800012964C911297248135814217130651F421
:100F900021E057962C9346E350E064E273E080E84A
:100FA0000C94AA0290E080E00895CF93DF93CDB730
:100FB000DEB769970FB6F894DEBF0FBECDBFFC0158
:100FC000DB019C919F5F9C9321E1AE014D5F5F4FE0
:100FD000DA01822F1D928A95E9F739E0398384E09E
:100FE0008A8391E09D8383E08E839F8342E04887DC
:100FF0003A8731E23B872C879D879F8722E2288BA7
:1010000026E3298B27E02B8B25E02C8B8E8B20E48D
:1010100030E0388F2F8B998F82818B83838180681A
:101020008D8B49E150E0BE016F5F7F4F80E00E94F1
:10103000AA0269960FB6F894DEBF0FBECDBFDF914E
:10104000CF910895CF93DF93DC0190E2960F983013
:10105000B0F414968C91149721E030E001C0220F77
:101060009A95EAF7442341F0282B14962C9381E0BB
:1010700090E0DF91CF91089520952823F6CFFD01D0
:1010800036964423D1F0CD010C96EF0129916217D9
:1010900071F3C817D907D1F790E080E021912111B1
:1010A00005C0A80FB91F16966C93E1CF0196863044
:1010B0009105A1F790E080E0DCCF90E080E0219105
:1010C000621305C0A80FB91F16961C92D0CF0196C7
:1010D00086309105A1F7EECFCF92DF92FF920F936A
:1010E0001F93CF93DF938C01F42EE62FF0E0EE0FE9
:1010F000FF1FEC5DFE4FC590D490D801ED91FC919F
:101100000484F585E02D6C2DC8010995EC01892B2F
:1011100011F4F11070C0D0FE0CC0D801ED91FC911B
:101120000484F585E02D4F2D60EEC8010995C82B8C
:10113000D92BD1FE0CC0D801ED91FC910484F5852A
:10114000E02D4F2D61EEC8010995C82BD92BD2FE99
:101150000CC0D801ED91FC910484F585E02D4F2D54
:1011600062EEC8010995C82BD92BD3FE0CC0D8015B
:10117000ED91FC910484F585E02D4F2D63EEC801BF
:101180000995C82BD92BD4FE0CC0D801ED91FC9148
:101190000484F585E02D4F2D64EEC8010995C82B18
:1011A000D92BD5FE0CC0D801ED91FC910484F585B6
:1011B000E02D4F2D65EEC8010995C82BD92BD6FE21
:1011C0000CC0D801ED91FC910484F585E02D4F2DE4
:1011D00066EEC8010995C82BD92BD7FE0CC0D801E3
:1011E000ED91FC910484F585E02D4F2D67EEC8014B
:1011F0000995C82BD92BCE01DF91CF911F910F916B
:10120000FF90DF90CF900895FF920F931F93CF939D
:10121000DF93EC01F62E41E00E946C088C01892BD3
:10122000A9F0E881F9810284F385E02DCE010995CA
:1012300040E06F2DCE010E946C08892B39F0E881C7
:10124000F9810284F385E02DCE010995C801DF9173
:10125000CF911F910F91FF900895FC0183818064CD
:101260000C942B060A970C942D09DC01FB011296B5
:101270002C911297848195812817190641F4918148
:101280008081813A31F49D7F81E0913009F080E0E6
:1012900008958132E1F79B3029F482811D968C9369
:1012A00081E008959A3099F782811E968C93F8CF49
:1012B000FB0120812138B1F42381223299F4DC0131
:1012C00012964C911297248135814217130651F4DE
:1012D00021E01D962C9348E750E06CEA70E080E82E
:1012E0000C94AA0290E080E00895CF93DF93CDB7ED
:1012F000DEB769970FB6F894DEBF0FBECDBFFC0115
:10130000DB019C919F5F9C9321E1AE014D5F5F4F9C
:10131000DA01822F1D928A95E9F739E0398384E05A
:101320008A8391E09D8383E08E8342E048873A87F9
:1013300031E23B872C879D879F8722E2288B28E715
:10134000298B27E02B8B25E02C8B8E8B20E430E043
:10135000388F2F8B998F82818B83838180688D8BCF
:1013600049E150E0BE016F5F7F4F80E00E94AA021A
:1013700069960FB6F894DEBF0FBECDBFDF91CF9157
:101380000895FC0182818F5BFB01808381E00895D9
:1013900020917002309171022817390771F49091F1
:1013A0006E0280916F02981741F0E0916E02F0E0BA
:1013B000EE5EFD4F808190E008958FEF9FEF0895DE
:1013C000EF92FF920F931F93CF93DF93DC015C9614
:1013D000ED90FC905D97E114F10479F481E090E0E8
:1013E00013969C938E93129790E080E0DF91CF91BB
:1013F0001F910F91FF90EF9008955196ED91FC9100
:10140000529750968C915097982F90950FB75E9663
:101410002C915E97122F127021FD6095F894208117
:10142000112319F1282B2083E7012197F1F728E0F8
:10143000462F50E0308160FF1AC0382B3083E7011F
:101440002197F1F7BA0175956795215089F7112316
:1014500081F08081892380830FBF5C968D919C9160
:101460000197F1F781E090E0C1CF2923DCCF392348
:10147000E5CF9081892BEFCF2091700230917102DE
:101480002817390761F480916F0220916E0290E075
:10149000805C9F4F821B91098F739927089590E07C
:1014A00080E0089520917002309171022817390769
:1014B000B9F490916E0280916F02981789F0E091D3
:1014C0006E02F0E0EE5EFD4F808120916E0230E012
:1014D0002F5F3F4F2F73332720936E0290E00895C4
:1014E0008FEF9FEF08950F931F93CF93DF93FC012E
:1014F0008B01EA0180819181892B31F192819923BD
:1015000049F128813981232BF9F0D8012D913C91A3
:10151000D9014C918381682F691B770B8081918160
:10152000860F971FDC014C938281815082838881D2
:101530009981019799838883D8018D919C91119706
:1015400001968D939C93DACF80E0DF91CF911F912C
:101550000F9108958381828381E0F7CF08953F92B0
:101560004F925F926F927F928F929F92AF92BF92B3
:10157000CF92DF92EF92FF920F931F93CF93DF935F
:1015800000D000D0CDB7DEB76C017A8369835C836D
:101590004B8384E0482E360182E1680E711C93E093
:1015A000392E5601A7E0AA0EB11C12E0552453941F
:1015B0004601B0E18B0E911C29813A81211531053C
:1015C00009F4CBC0F60180A18230F1F0A8F58823A0
:1015D00009F457C0813091F7AE014F5F5F4FBE01F4
:1015E0006D5F7F4FC5010E94730A882309F4B5C05F
:1015F000D6011596ED91FC911697808191968C936A
:101600009197818192968C93F6017682658230A2C1
:10161000D60192968C919297843011F493961C92F5
:10162000F60181A18250848325813681308727830A
:101630008287818740A205C0833051F3843009F04E
:10164000BDCFD60192968C919297843019F1853056
:1016500009F44CC0823009F073C0AE014F5F5F4F98
:10166000BE016D5F7F4FC5010E94730A882309F494
:1016700074C0F601858984A3F6019682858210A242
:101680009BCF1483858196819087878312871187EA
:1016900050A2A2CFAE014F5F5F4FBE016D5F7F4F83
:1016A000C5010E94730A882309F457C0D6015596D4
:1016B0008C915597833001F798968C91989781116A
:1016C000DBCF93965C92939752968C915297969615
:1016D0008C93969753968C91539797968C93979754
:1016E00057968C91579795968C93C6CFAE014F5FC6
:1016F0005F4FBE016D5F7F4FC5010E94730A882353
:1017000061F1F60183A1882309F4B6CF8281938128
:10171000009709F4B1CFDC01ED91FC910190F081CB
:10172000E02D7401D60195960C91959797962C9182
:10173000979796964C91969794966C9109959CCF15
:10174000F60185858823F9F0813041F1D6011E9696
:101750008D919C91892B09F48FCF0F900F900F9052
:101760000F90DF91CF911F910F91FF90EF90DF903D
:10177000CF90BF90AF909F908F907F906F905F9031
:101780004F903F90089591968C9191978250990B2C
:101790001F969C938E931E971D965C9229813A8189
:1017A0008B819C81782F692FF601468557854115DD
:1017B000510581F001962115310539F0415051094B
:1017C0005787468721503109EDCF7B836C831A827E
:1017D0001982BCCF9C838B833A8329831586B6CF2D
:1017E000CF93DF93EC018C819D81DC01ED91FC9125
:1017F0000480F581E02D6E81099581E08E8F1E8237
:101800001F8E18A219A21AA21CA280E0DF91CF910C
:101810000895FC01DC01A65ABF4F8C918823A1F0EA
:101820008781681741F0828521E030E0681729F050
:1018300090E080E0089530E020E0C901880F991F12
:10184000820F931FE80FF91F808591850895FC0191
:101850008781811104C080859185892B59F082850B
:10186000811106C08385948521E030E0892B21F029
:1018700080E0089530E020E0C901880F991F820FB1
:10188000931FE80FF91F67835187408781E0089510
:101890000895DF92EF92FF920F931F93CF93DF9300
:1018A000EC0185E0E62EF12CFE01869FE00DF11D96
:1018B0001124908596FF24C0192F177001E085E050
:1018C000D82E8FEF800F8F3008F001E0602F70E08E
:1018D000062FD69EF001D79EF00D1124EC0FFD1FB0
:1018E00080858695869586958770181701F16F5FBC
:1018F0007F4F603168F38D81811302C011501D83C9
:1019000085E08E9DF0018F9DF00D1124EC0FFD1FE1
:10191000108681E0818712862296D783C683DF9165
:10192000CF911F910F91FF90EF90DF900895CE011E
:101930000E94490CC6CFFC0120812EBD9B01215085
:10194000310941F051810DB407FEFDCF4EB55EBDAA
:101950004193F5CF61507109860F971F0DB407FEB3
:10196000FDCF2EB5FC0120830895FC0121E06134F8
:1019700099F49C01255B3F4F61E0AC014E5F5F4FE6
:101980001586668717865487438735962E173F0737
:10199000B9F7FC01158208953585631729F02F5F8B
:1019A00035962031C9F70895622F0C94490CCF93D6
:1019B000DF93FC0167FD12C0283080F4442319F046
:1019C0008581873059F0EF01A1E0B0E08D85882353
:1019D00049F111962596A031B105C1F780E018C0F4
:1019E00085E08A9FE0018B9FD00D1124CE0FDF1F71
:1019F000442389F081E4888785818F5F858325E092
:101A00002A9FC0012B9F900D1124E80FF91F80859C
:101A1000DF91CF91089581E08887F1CF2770687BAF
:101A2000622B0FC06623E1F26770660F660F660FC8
:101A30004423A1F3606485818F5F85838770687F0D
:101A4000682B25E02A9FC0012B9F900D1124E80FE1
:101A5000F91F6087862FDCCFFC0121E0611102C0F5
:101A6000069608953585631739F02F5F3596203136
:101A7000C9F790E080E00895069635E0239F800D39
:101A8000911D1124089590E080E00895DC01FB0190
:101A900012962C911297848195812817190641F48A
:101AA00091818081813A31F49D7F81E0913009F00C
:101AB00080E008958132E1F79B3029F482811F96FE
:101AC0008C9381E008959A3099F7828150968C9397
:101AD000F8CFDC01FB0188E4808389E4818384E41E
:101AE00082831D969C911D979F709F5B93831D968B
:101AF0008D919C9124E0969587952A95E1F78F70BA
:101B00008F5B848385E00895EF92FF920F931F937C
:101B1000CF93DF93FB012081213871F5238122329D
:101B200059F5DC0112964C91248135814217130638
:101B300019F5EC010B851C85F12CE12C0115110523
:101B400089F0F801448155816281738180E80E94A7
:101B5000AA028F3F980749F0E80EF91ED8010D91AF
:101B60001C91ECCF81E08F87C701DF91CF911F914E
:101B70000F91FF90EF90089590E080E0F6CFCF9323
:101B8000DF93CDB7DEB769970FB6F894DEBF0FBE0F
:101B9000CDBFFC01DB018C918F5F8C939E012D5F8B
:101BA0003F4F8DE0D9011D928A95E9F729E02983FD
:101BB00084E08A8381E08D8393E09E8332E03887DE
:101BC0002A8721E22B8721E12C878D878F8722E2CC
:101BD000288B27E02B8B25E02C8B9E8B20E430E09C
:101BE000388F2F8B898F82818B8395858685998B02
:101BF0008A8B838180688D8B49E150E0BE016F5FE5
:101C00007F4F80E00E94AA0269960FB6F894DEBF6B
:101C10000FBECDBFDF91CF9108952E9808952E9AD3
:101C20000895FC019C01285F3F4F90E080E04481D3
:101C30004111019614823196E217F307C1F7089516
:101C4000EF92FF920F93FC01368D323018F0348DF5
:101C5000361302C00E941B1B0F91FF90EF90089556
:101C6000EF92FF920F9302970E94200E0F91FF9028
:101C7000EF9008950895EF92FF920F931F93422FD4
:101C8000202F8701DC01ED91FC9100A0F1A1E02D56
:101C900009951F910F91FF90EF90089581E00895AD
:101CA000FC0184A10895FC018681089580E00895D7
:101CB00081E0089580E0089580E00895089580E02F
:101CC000089508950F931F93CF93DF93D82FC62FB6
:101CD0008A0180E591E00E944E020E940D0ED260C2
:101CE000DEBDF8018C2F882339F00DB407FEFDCF3F
:101CF00091919EBD8150F7CFC00FD12FD11D0DB452
:101D000007FEFDCF0E940F0ECE01DF91CF911F91F4
:101D10000F9108950F931F93CF93DF9300D0CDB70A
:101D2000DEB7182F062F80E591E00E944E020E9438
:101D30000D0E126019830A8362E070E0CE010196F5
:101D40000E949B0C0E940F0E0F900F90DF91CF917D
:101D50001F910F9108958EBD00000DB407FEFDCFB9
:101D60008EB50895CF93C82F80E591E00E944E0272
:101D70000E940D0E8C2F0E94AB0E80E00E94AB0ED5
:101D8000C82F0E940F0E8C2FCF9108958F929F9293
:101D9000AF92BF92CF92DF92EF92FF920F931F9379
:101DA000CF93DF93882E962E5A010E9454076B0121
:101DB0007C0128E8C20E23E1D21EE11CF11C10E0D8
:101DC00000E0D0E0C0E098280E9454076C197D091B
:101DD0008E099F0997FF1EC0692D80EF0E948A0E11
:101DE0000E9454076C197D098E099F0997FF09C04D
:101DF00088EC0E94B20E87FFF3CF60E888EC0E9467
:101E00008A0E88EF0E94B20EC82FCF70C43081F0C6
:101E1000CE30B9F08C2FDF91CF911F910F91FF90B1
:101E2000EF90DF90CF90BF90AF909F908F900895EC
:101E30000F5F1F4FA114B10439F20A151B0521F6DB
:101E4000E9CFDF5FD33009F0BFCFE4CFAF92BF92CD
:101E5000CF92DF92EF92FF920F931F93CF93DF9376
:101E6000EC01B62EA42E69010E942C0D7C0186ED9A
:101E7000E114F10409F447C0D701ED91FC911197E9
:101E800087ED309709F43FC013969C9180E0981736
:101E900031F02081A21629F033968F5FF8CFF0E061
:101EA000E0E0D601ED93FC938BED309761F1228158
:101EB00026952695203108F02FE081E090E0A0E003
:101EC000B0E004C0880F991FAA1FBB1F2A95D2F744
:101ED0000197F801918380836B2D80EE0E948A0E1A
:101EE00088ED0E94B20ED70114969C91682F697FED
:101EF000992329F0CA58DF4F68816260682B88ED0A
:101F00000E948A0E80E0DF91CF911F910F91FF9088
:101F1000EF90DF90CF90BF90AF90089588EF0E9430
:101F2000B20E807C8034B1F018F4882301F108955A
:101F3000803819F0803CC9F0089588ED0E94B20EF7
:101F400081FD0DC069EC88ED0E948A0E82E08093CD
:101F50008102089588ED0E94B20E81FDF3CF6BECF3
:101F600088ED0E948A0E83E0F2CF81E0F0CF61ED30
:101F700088ED0E948A0E109281020895862F642FA8
:101F8000422F0C94C506862F0C942307862F0C94A1
:101F900031070F931F93CF93DF93283009F05AC076
:101FA000E8018C01888180FF41C081E00E943107F7
:101FB000888181FF3FC082E00E943107888182FFD3
:101FC0003DC084E00E943107888183FF3BC088E0E8
:101FD0000E943107888184FF39C080E10E94310767
:101FE0006C8170E0D80116967C936E9315974E81A4
:101FF00050E018965C934E9317972B811D962C9367
:102000006115710529F44115510511F4222311F1CF
:10201000F80182819381DC01ED91FC910480F581CE
:10202000E02DDF91CF911F910F91099481E00E94E3
:102030002307BECF82E00E942307C0CF84E00E9426
:102040002307C2CF88E00E942307C4CF80E10E940B
:102050002307C6CFDF91CF911F910F910895CF92A3
:10206000DF92FF920F931F93CF93DF93F62E01E041
:10207000C82FD0E0CC0FDD1FC058DB4F6E01888128
:102080009981DC01ED91FC910280F381E02D2F2DEF
:1020900040E060E00995182F803E49F561E088EE48
:1020A0000E948A0E66E670E080E090E00E94F905EA
:1020B000F60180819181DC01ED91FC910190F0812C
:1020C000E02D2F2D40E060E00995182F8D3041F56F
:1020D0008FEF800F833088F061E088EE0E948A0ED7
:1020E00066E670E080E090E00E94F90510C08D3057
:1020F00061F48FEF800F833050F464E670E080E08D
:1021000090E00E94F9050F5FBACF882389F2812FF2
:10211000DF91CF911F910F91FF90DF90CF900895A5
:102120008823A9F3D9CF2F923F924F925F926F925B
:102130007F928F929F92AF92BF92CF92DF92EF9257
:10214000FF920F931F93CF93DF937B013A016901B5
:10215000F901A080B180FB013180F9011182108268
:10216000FB01828160E181FD60E288EE0E948A0EBF
:102170002A2CA301F701608180E00E94C60E582E30
:10218000F6E08F1310C088EF0E94B20EF701928123
:102190009D7F84FF9260928360E191FD60E288EE12
:1021A0000E948A0EE6CF811150C088EC0E94B20EC8
:1021B00082FF5FC080E30E94B20E482E8A151B0486
:1021C00011F008F0422CF60180819181E501C81BD5
:1021D000D90BD7FF02C0D0E0C0E0842C912C8C1624
:1021E0009D060CF4E40180E591E00E944E020E94FD
:1021F0000D0E88E00E94AB0EAE0170E060E0C801F9
:102200000E94F928209721F0BE01C8010E949B0C72
:102210000C0F1D1F0E940F0E64E088EC0E948A0EB6
:10222000F60180819181880E991E918280824314EB
:1022300020F08A149B0408F49CCF88EF0E94B20E11
:10224000F701928184FB91F99283852DDF91CF91E3
:102250001F910F91FF90EF90DF90CF90BF90AF90C4
:102260009F908F907F906F905F904F903F902F90B6
:10227000089580EF582EE9CFAF92BF92CF92DF92B0
:10228000EF92FF920F931F93CF93DF9300D000D074
:10229000CDB7DEB77C01690158011C821B821A820E
:1022A00019828E010F5F1F4F9E012D5F3F4F0E94CD
:1022B000260F811109C049815A816B817C8185017A
:1022C0009601C7010E9493100F900F900F900F90EE
:1022D000DF91CF911F910F91FF90EF90DF90CF9002
:1022E000BF90AF9008954F925F926F927F928F92BE
:1022F0009F92AF92BF92CF92DF92EF92FF920F9395
:102300001F93CF93DF93CDB7DEB7C254D1090FB679
:10231000F894DEBF0FBECDBFDC0194962C91211145
:102320001AC0612C862DCE5BDF4F0FB6F894DEBF4E
:102330000FBECDBFDF91CF911F910F91FF90EF9016
:10234000DF90CF90BF90AF909F908F907F906F90D5
:102350005F904F9008957C010E945407F701878C8D
:1023600090A0A1A0B2A0681979098A099B0997FDDC
:10237000D8CF0E945407D70193962C91620F711DFC
:10238000811D911DF701678F70A381A392A3712C0A
:102390006E01F1E4CF0ED11C30E4832E912C570155
:1023A0008AE5A80EB11CD7015D968C91781608F0CD
:1023B000B8CFE72DF0E07296EE0FFF1FEE0FFF1F74
:1023C000EE0DFF1D8081E82FF0E0CF01880F991FEF
:1023D000DC01AE0FBF1FAE0DBF1D96962C9130E0F5
:1023E000D6012D933C93DE0111962D011D92AC1563
:1023F000BD05E1F7E80FF91FEE0DFF1D8201960103
:1024000045A1F7016681848195810E943C11682E67
:10241000811188CFD6018D919C91119781349105BE
:1024200010F08D929C92D701ED91FC9100A0F1A14A
:10243000E02D8201D6012C91D5014C91B701C70145
:102440000995D701ED91FC910288F389E02DD50122
:102450008C9181116980662DC7010995009769F0FB
:10246000DC01ED91FC910190F081E02D8201D6011B
:102470002C91D5014C91B7010995739494CF3F925B
:102480004F925F926F927F928F929F92AF92BF9284
:10249000CF92DF92EF92FF920F931F93CF93DF9330
:1024A000CDB7DEB7C254D1090FB6F894DEBF0FBE68
:1024B000CDBFDC0194962C91222309F4A1C06C01BC
:1024C0000E945407F601878C90A0A1A0B2A06819C1
:1024D00079098A099B0997FD93C00E945407D60188
:1024E00093962C91620F711D811D911DF601678FCE
:1024F00070A381A392A3312C5E01F1E4AF0EB11C55
:1025000046018AE5880E911CD6015D968C9138169D
:1025100008F076C0E32DF0E07296EE0FFF1FEE0F8D
:10252000FF1FEC0DFD1D6080662009F467C0712C53
:102530007301EE0CFF1CF701E60DF71DEC0DFD1D00
:1025400086A190E0F50191838083FE0131962F01F1
:102550001192EA15FB05E1F7F701E60DF71DEC0D09
:10256000FD1D8201950145A1D60116966C91169725
:1025700014968D919C910E943C11182F81113EC0A0
:10258000F501808191810097C9F18134910520F096
:1025900080E490E091838083E60CF71CD601AE0DB9
:1025A000BF1DF60180819181FC01608C718C7201EC
:1025B000F5010081F401208195964C91B601C60188
:1025C000F3010995D601ED91FC910288F389E02D84
:1025D000D4018C9181111981612FC6010995009751
:1025E00069F0DC01ED91FC910190F081E02D820118
:1025F000D5012C91D4014C91B6010995339484CF27
:1026000080E0CE5BDF4F0FB6F894DEBF0FBECDBFCC
:10261000DF91CF911F910F91FF90EF90DF90CF90BE
:10262000BF90AF909F908F907F906F905F904F90F2
:102630003F9008952F923F924F925F926F927F92B8
:102640008F929F92AF92BF92CF92DF92EF92FF92C2
:102650000F931F93CF93DF93CDB7DEB766970FB677
:10266000F894DEBF0FBECDBF3C01442E322E202E8B
:10267000EA8ACE8AEBA4FCA4CDA4DEA41E861D8625
:10268000188A1F868E01015F1F4F9E01235F3F4FF7
:102690000E94260F582E81113BC139822A822A8935
:1026A0002B833E893C83BE82AD8298868F82AE01A9
:1026B0004F5F5F4F68E080E20E94620E4F8558894D
:1026C000642D80E10E94C60E811140C1C114D10465
:1026D00009F453C00D851E85D80112968C9112976E
:1026E00037FE51C0826012968C93540122242394A9
:1026F000A114B10409F42FC1FC86EB864F855889DB
:102700006D857E8586019E01255F3F4FC3010E9436
:102710009310582EB6E08B130EC088EF0E94B20EB5
:10272000ED85FE8585FB882780F98225928180FBD7
:1027300091F99283DDCF8111EBC0EFA5F8A9309715
:10274000A1F06B857C850190F081E02D0190F081F6
:10275000E02DC4018A199B099A8789879E01275F0A
:102760003F4FA6018FA598A909958B859C85A81A2E
:10277000B90A8E159F0508F0BBCF4F85588937FEE3
:10278000E1C080EAE0C0816012968C9312971196A6
:102790008C908FEF880D803408F0DAC02F84388851
:1027A0000E9454079B01AC0128573C4E4F4F5F4F8E
:1027B0002A8B3B8B4C8B5D8BD80112968C9160E8F9
:1027C00080FF60E488EE0E948A0E512C912CE11467
:1027D000F10409F48CC03401E814F90408F4370159
:1027E0006E8AA601662D80E10E94620E662D88E346
:1027F0000E948A0EF8016081606280EF0E948A0E5A
:1028000088EC0E94B20E87FFFBCF60E888EC0E9444
:102810008A0E88EF0E94B20E8F70582E198AB12C42
:10282000A12C552021F10E9454072A893B894C890B
:102830005D89621B730B840B950B97FF18C036E004
:10284000531609F440C04EE05416B1F054E055124E
:1028500009C08FEFA81AB80A2114310491F02A1484
:102860003B0479F460E088E30E948A0E42C0E618D7
:10287000F708C60CD71CABCF99899F5F998B933013
:1028800089F360E088E30E948A0ED6016C9180E1B2
:102890000E948A0E6E8988E30E948A0EF801608188
:1028A000606280EF0E948A0E88EC0E94B20E87FF61
:1028B000FBCF60E888EC0E948A0E88EF0E94B20E7F
:1028C0008F70582EAECF88EF0E94B20E85FB8827FE
:1028D00080F9A1E08A27F801928180FB90F9928328
:1028E00060E890FF60E488EE0E948A0ECACF511023
:1028F000B9CF88EF0E94B20ED80112969C91129720
:1029000085FB90F912969C934F8558895520D1F0FC
:10291000852D66960FB6F894DEBF0FBECDBFDF9152
:10292000CF911F910F91FF90EF90DF90CF90BF90CC
:10293000AF909F908F907F906F905F904F903F905F
:102940002F90089580E8642D0E94C60E582EE0CF87
:102950008AED582EDDCF4F855889552009F411CFC7
:10296000D7CF8F929F92AF92BF92CF92EF920F9359
:10297000CF931F921F921F921F921F921F92912C12
:10298000812CB12CA12CC12CE62E05E020E040E0EA
:1029900060E00E941A13C82F6CE271E080E090E0C2
:1029A0000E94F9050F900F900F900F900F900F90CD
:1029B0008C2FCF910F91EF90CF90BF90AF909F90C1
:1029C0008F9008958F929F92AF92BF92CF92EF9285
:1029D0000F931F921F923F932F935F934F934A0140
:1029E000B12CA12CCC24C394E12C06E020E840E0DB
:1029F0000E941A130F900F900F900F900F900F904E
:102A00000F91EF90CF90BF90AF909F908F900895CF
:102A10002F923F924F925F926F927F928F929F92EE
:102A2000AF92BF92CF92DF92EF92FF920F931F93DC
:102A3000CF93DF93CDB7DEB7C158D1090FB6F89465
:102A4000DEBF0FBECDBFDC0116963C9119ED3111F2
:102A500014C0B22EA42E162F3C01FC01E480F58098
:102A6000D701ED91FC910190F081E02D60E0C7016C
:102A700009952C010097E1F416ED812FCF57DF4F18
:102A80000FB6F894DEBF0FBECDBFDF91CF911F917F
:102A90000F91FF90EF90DF90CF90BF90AF909F90FD
:102AA0008F907F906F905F904F903F902F90089500
:102AB000FC01C080D180C114D10409F4BAC1130152
:102AC000F5E22F0E311CDC0111963C922E921496E9
:102AD000BC929E0126593F4F48E050E060E0F30170
:102AE000848195810E94E214082F8111A6C1AB96C2
:102AF0000FADAB97D201CD92DC92D701ED91FC9155
:102B00000280F381E02D2A2D40E0612FC701099555
:102B1000F301868314ED882309F4AFCFE2969FADCD
:102B2000E29796A3682F848195810E94B114182F93
:102B3000D701ED91FC91D20114961C92882359F093
:102B40000480F581E02DD30116966C91C70109959B
:102B5000F301168292CF0190F081E02DD3011696F9
:102B60006C91C7010995009709F486CFFC01B482E6
:102B700001111CC0E4968EAD9FADE497F301E35ABA
:102B8000FF4F91838083E6968EAD9FADE697329797
:102B900091838083D30114968D919C9115971696FD
:102BA0000C9121143104E9F408ED11C0033108F04F
:102BB00002E1402F50E09E0126593F4FF30166810C
:102BC000848195810E94E214082F882399F2D30111
:102BD000ED91FC910480F581E02DC3010995102F42
:102BE0004CCF602F0E942C0DFC01892B09F41DC1D4
:102BF000EC96DFACEC9702833182208281E0838304
:102C00002E01F1E44F0E511CC3010296C058DF4F54
:102C100099838883C058D040D2015096EE96BFAFBA
:102C2000AEAFEE971D1509F47EC089E291E0F20186
:102C300091838083C058DF4FA881B981C058D040AC
:102C4000B383A28314821186128615861786168690
:102C500010A211A212A210A6EE968EAD9FADEE9715
:102C6000968385839087878394878387D30114967F
:102C70000D90BC91A02DC258DF4FB983A883CE57C9
:102C8000D040F301F6801F921F9281E090E08C0FFC
:102C90009D1F9F938F931F9299E09F9339E0832EFE
:102CA000912CB12CA12C42E0C42EE12E06E020E8AC
:102CB00040E06F2DC258DF4F88819981CE57D040B8
:102CC0000E941A13082F0F900F900F900F900F90E3
:102CD0000F9081117CCF8B809C805F924F92A1E0FE
:102CE000B0E0AC0FBD1FBF93AF931F92B0E4BF9392
:102CF00006E020E840E06F2DC258DF4F88819981BF
:102D0000CE57D0400E941A13082F0F900F900F90AB
:102D10000F900F900F9081115ACFF301868D823062
:102D200010F41F5F7FCFD3015E961C915E97123027
:102D300008F481C016960C911697602F14968D9109
:102D40009C910E942C0DFC01892B21F00283318281
:102D5000208213831F921F921F921F921F921F9215
:102D6000912C812CB12CA12CC12CF301E48C09E015
:102D700020E040E06681848195810E941A13182F1B
:102D80000F900F900F900F900F900F9081114FC0E8
:102D9000F12CD3015D968C915D97F816D8F58F2DA7
:102DA00090E0FC017296EE0FFF1FEE0FFF1FE60D85
:102DB000F71D2081211102C0F394EBCFFC01EE0F2F
:102DC000FF1FEE0FFF1FE60DF71DEA5BFF4F80812F
:102DD0008770A82EB12C1F921F921F921F921F92D4
:102DE0001F92912C812CC12CE12C0AE021E240E0C1
:102DF000F3016681848195810E941A13082F0F9038
:102E00000F900F900F900F900F908823A9F28530AC
:102E100099F2DDCEED91FC910688F789E02DC30192
:102E2000099581E0F30184A328CE06EDD0CE082FCA
:102E3000CECE17ED22CE11ED20CEF201D182C0828E
:102E4000C6CE0E94EB28FC0180819181009711F091
:102E50000C94A52708950F931F93CF93DF93EC0154
:102E600088819981009759F02A813B81261737077D
:102E700030F081E0DF91CF911F910F9108958B0188
:102E80006F5F7F4F0E942E28009759F099838883A7
:102E90001B830A832C813D81232B59F7FC0110826F
:102EA000E8CF80E0E7CFEF92FF920F931F93CF938D
:102EB000DF936115710541F480E0DF91CF911F919F
:102EC0000F91FF90EF90089541155105B1F07B01EE
:102ED000EC010C811D81040F151FB8010E942B17F6
:102EE000882351F3288139818C819D81B701820F1C
:102EF000931F0E9400291D830C8381E0DECFFB011C
:102F000001900020E9F73197AF01461B570B0C9455
:102F10005317FB0144815581608171810C945317D3
:102F2000EF92FF920F931F93CF93DF93EC017B01FE
:102F30008A01BA010E942B1728813981811114C09E
:102F40002115310519F0C9010E94A527198218829F
:102F50001D821C821B821A82CE01DF91CF911F91AC
:102F60000F91FF90EF9008951D830C83B701C90165
:102F70000E940029F1CFEF92FF920F931F93CF93FE
:102F8000DF93CDB7DEB762970FB6F894DEBF0FBE02
:102F9000CDBF8C01CB01F801118210821382128205
:102FA000158214824AE09E012F5F3F4F7901B901DB
:102FB0000E942026F70101900020E9F73197AF0128
:102FC0004E195F09B701C8010E94901762960FB6AB
:102FD000F894DEBF0FBECDBFDF91CF911F910F914F
:102FE000FF90EF9008951F920F920FB60F92112449
:102FF0008F939F938091E1009091E100937F909354
:10300000E10083FF0FC01092E90091E09093EB0084
:103010001092EC0092E39093ED001092800298E001
:103020009093F00082FF22C093E09093E90090918A
:10303000F200992319F09AE39093E80090916B02C3
:10304000992341F090916B02915090936B029111F2
:1030500001C05D9A90917F02992341F090917F0287
:10306000915090937F02911101C0289A84FF18C05B
:103070008091E2008E7E81608093E2008091E10089
:103080008F7E8093E10080916C028E7E80618093C0
:103090006C029F918F910F900FBE0F901F9018950B
:1030A00080FFF7CF8091E2008E7E80618093E20006
:1030B0008091E1008E7E8093E10080916C028E7E93
:1030C0008160E5CF1F920F920FB60F921124FF92ED
:1030D0000F931F932F933F934F935F936F937F9320
:1030E0008F939F93AF93BF93EF93FF93CF93DF9310
:1030F000CDB7DEB76197DEBFCDBF1092E9008091FA
:10310000E80083FF25C068E0CE010A960E94E10234
:1031100082EF8093E8008A8587FF36C09091E800AF
:1031200090FFFCCF982F907609F002C19B854C85CB
:103130005D852C85FD8491112EC0803849F58091E4
:103140006D028093F1001092F1008EEF8093E80001
:1031500061960FB6F894DEBF0FBECDBFDF91CF9161
:10316000FF91EF91BF91AF919F918F917F916F915F
:103170005F914F913F912F911F910F91FF900F9071
:103180000FBE0F901F9018959EEF9093E800CACF46
:103190001092F100D8CF913059F48111D6CF41303F
:1031A000510599F680916D028D7F80936D02CDCF90
:1031B000933049F48111C9CF4130510531F68091E6
:1031C0006D028260F2CF953041F48091E80080FF7B
:1031D000FCCF20682093E300B8CF963009F07CC084
:1031E0000889198982E01092E90010926A0210920F
:1031F0006902F8122FC010926802109267020E94B2
:10320000610399E09983FA8291E09E8394E09F8321
:1032100090EA988791E399872091690230916A0238
:10322000275F3F4F3C832B838D831092E9001092E0
:103230006A0210926902109368020093670249E0E3
:1032400050E0BE016F5F7F4F80E00E94AA020E94A3
:1032500061037BCF10936802009367020E944E03C4
:10326000DC0112960D911C910115110509F48CC019
:10327000D801ED91FC910480F581E02DBE01665FDF
:103280007F4FC8010995009709F079C0F8010085C2
:103290001185EACFF3E0FF120CC08C85882399F0EA
:1032A000823059F46CE088E993E00E94E41A8111BD
:1032B0004CCF81E28093EB004BCF8130D1F768E0B7
:1032C0008FE893E0F2CF69E773E0FB01449150E0AF
:1032D00080E80E94AA0239CF973059F3983021F440
:1032E00081E08093F10031CF993009F02ECF8370C7
:1032F00001F7EDE0F1E081E031E096E32191222356
:1033000071F08093E9003093EB00DF0111972C916D
:103310002093EC009093ED008F5F873079F78EE774
:103320008093EA001092EA008C85809380020DCF92
:10333000888999891092E90010926A0210926902B4
:1033400090936802809367020E944E03DC011296FC
:103350000D911C910115110509F4ABCFD801ED9128
:10336000FC910190F081E02DBE01665F7F4FC801A6
:1033700009958111EACEF80100851185EBCF181669
:1033800019060CF4E2CE95CFF1E0FF1283CF6DE782
:1033900073E09BCF1F920F920FB60F9211242F93C1
:1033A0003F934F935F936F937F938F939F93AF93CD
:1033B000BF93EF93FF9382E892E00E942304FF9172
:1033C000EF91BF91AF919F918F917F916F915F919D
:1033D0004F913F912F910F900FBE0F901F90189516
:1033E0001F920F920FB60F9211242F938F939F93DA
:1033F000EF93FF93E0919202F09193028081E0912C
:103400009802F091990282FD1BC0908180919B02ED
:103410008F5F8F7320919C02821741F0E0919B0295
:10342000F0E0EE57FD4F958F80939B02FF91EF9157
:103430009F918F912F910F900FBE0F901F90189515
:103440008081F4CF1F920F920FB60F9211242F9309
:103450003F938F939F93AF93BF938091530290912B
:103460005402A0915502B09156023091520223E0CD
:10347000230F2D3758F50196A11DB11D209352023F
:103480008093530290935402A0935502B093560236
:103490008091570290915802A0915902B0915A021E
:1034A0000196A11DB11D8093570290935802A093DD
:1034B0005902B0935A02BF91AF919F918F913F9162
:1034C0002F910F900FBE0F901F90189526E8230F95
:1034D0000296A11DB11DD2CF1F920F920FB60F926F
:1034E00011242F933F934F935F936F937F938F9309
:1034F0009F93AF93BF93EF93FF93E0917002F0918E
:103500007102309749F0A685B7858585968D91FF24
:1035100014C09C918923A1F4FF91EF91BF91AF91C9
:103520009F918F917F916F915F914F913F912F91DB
:103530000F900FBE0F901F9018959C91892361F7F3
:10354000A389B4899C918589809589238C938689E8
:1035500097890197F1F7608D718DA685B78555859F
:1035600038E020E0CB010197F1F7822F90E09595AC
:103570008795282F4C91452309F02068315091F709
:10358000868D81FD209580916F0290E001968F736A
:10359000992730916E02381799F0A0916F02B0E030
:1035A000AE5EBD4F2C9380936F02828D938D0197F9
:1035B000F1F7A389B4898C919589892B8C93ACCF31
:1035C000868D8160868FF1CFEF92FF920F931F93CC
:1035D000CF93DF93182FE92E062F81E0860F880FF7
:1035E0000E947C0283E00E947C02F12EC12FDE2D1E
:1035F000FE0184910E947C02182F80E00E947C02D0
:10360000812329F021969C2F9F19901788F3DF9131
:10361000CF911F910F91FF90EF900895BC01625FD1
:103620007F4FFC01838148E050E080640C942B06BE
:103630000A970C940E1B6F927F928F929F92AF927B
:10364000BF92CF92DF92EF92FF920F931F93CF938F
:10365000DF93EC01842F6C8F4D8D70E060E0A82E1D
:10366000B12C822E912C602E712C641770F5653070
:10367000710559F1DB01AA0FBB1FAA0FBB1FFE0189
:10368000EA0FFB1FEA5BFF4F9081392F37703A1525
:103690001B0409F087C0392F36953695369537705B
:1036A0003815190409F07EC09295969596959370F9
:1036B0009615170409F076C06E0196E4C90ED11C68
:1036C000CA0EDB1EC114D104F9F4453008F05BC00A
:1036D000A4E04A9FA00111246E01B6E4CB0ED11CD8
:1036E000C40ED51E2770220F220F220F982F97701D
:1036F000292B902F9295990F990F907C292BF601E9
:1037000020839D8D9F5F9D8FD70113969C9113976A
:10371000937010E0933029F412969C9112E097FD7B
:1037200011E0402F682FE881F981068CF78DE02D9C
:10373000CE010995882339F1112329F18E8D8B3023
:1037400010F5282F30E0F901EE0FFF1FE20FF31FF5
:10375000EC0FFD1FD70112969C9112979F7095A3B5
:1037600014969C91149796A394E097A3C10ED11C34
:10377000F601818316968C919BA1981708F48BA370
:103780008E8D8F5F8E8FDF91CF911F910F91FF9064
:10379000EF90DF90CF90BF90AF909F908F907F90F1
:1037A0006F9008956F5F7F4F60CFEF92FF920F93FE
:1037B00002970E941B1B0F91FF90EF900895CF93EB
:1037C000DF93109285021092840288EE93E0A0E0CD
:1037D000B0E08093860290938702A0938802B09312
:1037E00089022FE231E030938302209382022DEC94
:1037F00030E030938F0220938E022CEC30E0309337
:1038000091022093900228EC30E0309393022093B1
:10381000920229EC30E030939502209394022AEC36
:1038200030E030939702209396022EEC30E03093F4
:1038300099022093980210929B0210929C0210927F
:103840009D0210929E0210922203109221038093F7
:10385000230390932403A0932503B093260381E4CC
:1038600091E09093200380931F038FEF9FEF90933D
:103870002C0380932B03C1E0C0937303C0937403A4
:1038800085E893E090937603809375031092780314
:103890001092770310927C0310927B0383E591E0F2
:1038A0009093700380936F0381E691E090937A0385
:1038B00080937903C0938603C093870310928C038F
:1038C00010928B03D1ECD09385030E944E036FE6D8
:1038D00073E00E948A03C0939103C093920389E925
:1038E00093E0909394038093930310929603109225
:1038F000950383E791E090938E0380938D0381E895
:1039000091E09093980380939703C0939A03C09398
:103910009B03D09399030E944E036DE873E00E94CD
:103920008A0385EF91E090932B0480932A041092F0
:103930003204C0933304109234048CE294E09093E8
:1039400031048093300410922C0488E080932D047D
:103950008CE380932E0410922F04EAE2F4E021E03D
:103960008CE294E0158626871786948783873596A0
:1039700034E0E537F307B1F71092A00481E18093BA
:103980009C038AE294E09093D0038093CF038FE965
:1039900091E09093CC038093CB0383EC91E09093E0
:1039A000CE038093CD031092EA031092EB031092A2
:1039B000EC031092ED031092EE031092EF031092BD
:1039C00025041092D2031092D4031092D3031092C4
:1039D000D5031092D7031092D6031092D8031092F9
:1039E000DA031092D9031092DB031092DD031092D8
:1039F000DC031092DE031092E0031092DF031092BA
:103A0000E1031092E3031092E2031092E403109298
:103A1000E6031092E503E2E1F4E090E080E0DC01EF
:103A2000AA0FBB1FAA0FBB1FAF5EBB4F2C91287301
:103A30002C9310821182019634968530910579F786
:103A4000ABECB3E090E080E095961C929597382F10
:103A500028E0811120E096962C939697FC01EE0FBA
:103A6000FF1FEF01C80FD91FCE50DC4F28812E7FDA
:103A70002D7F2883311115C13FE0E80FF91FEE506B
:103A8000FC4F330F330F20812370232B20830196AB
:103A900013968B309105C1F681E08093E903109273
:103AA000E8031092E703E0E8F4E090E080E0219181
:103AB0003191232B09F0F7C0880F991FFC01E058C2
:103AC000FB4F8BEC93E09183808389EC91E09093A2
:103AD000CC038093CB038FEE91E09093CE03809341
:103AE000CD0389E991E09093BD038093BC0383E10A
:103AF00091E09093BF038093BE031092C003109295
:103B0000A00310929F0388EE93E0A0E0B0E08093C2
:103B1000A1039093A203A093A303B093A40387E807
:103B200091E090939E0380939D031092B4031092B2
:103B3000B3031092B6031092B5031092B80310921B
:103B4000B7031092BA031092B9036091BB036E7F62
:103B50006D7F6093BB036695617081E068278FE09D
:103B60000E94320561E08FE00E94A305EDEFF3E0D3
:103B7000E491E093AD03EEEDF3E0E491F0E0EE0FBD
:103B8000FF1FEF53FC4F859194919093AF03809367
:103B9000AE0360E083E00E94A3058091BB0381FD3A
:103BA00004C061E083E00E94320583E08093A903B2
:103BB000E1EFF3E0E491E093AA03E2EDF3E0E491B6
:103BC000F0E0EE0FFF1FED54FC4F85919491909320
:103BD000AC038093AB031092C8048091C0048111A0
:103BE00013C01092BB041092BA048DE094E090933D
:103BF000BD048093BC0486E390E09093BF0480935F
:103C0000BE0481E08093C0048091B20481112CC075
:103C1000C1E0C093A504C093A6048BEA94E09093FE
:103C2000A8048093A7041092AA041092A9048FEF0D
:103C300091E09093A2048093A1041092AD0410929D
:103C4000AC041092AF041092AE04C093B004C093C1
:103C5000B10481EC8093AB040E944E0361EA74E0EE
:103C60000E948A03C093B204E091AC04F091AD04C9
:103C7000309701F58AEB94E09093AD048093AC0407
:103C80008091AE049091AF042091BE043091BF04A6
:103C9000820F931F9093AF048093AE04DF91CF9176
:103CA000089531E0EACE01968031910509F0FFCE0A
:103CB0000CCFFC01808191810097D9F78AEB94E0C9
:103CC00091838083DDCFCF93DF93CDB7DEB7C85527
:103CD000D1090FB6F894DEBF0FBECDBF789484B57E
:103CE000826084BD84B5816084BD85B5826085BDF8
:103CF00085B5816085BD80916E00816080936E0086
:103D00001092810080918100826080938100809177
:103D10008100816080938100809180008160809328
:103D20008000809191008260809391008091910049
:103D300081608093910080919000816080939000D9
:103D40008091C10084608093C1008091C100826035
:103D50008093C1008091C10081608093C1008091F7
:103D6000C30081608093C3008091C0008260809313
:103D7000C0008091C20081608093C20080917A006F
:103D8000846080937A0080917A00826080937A00C8
:103D900080917A00816080937A0080917A008068B7
:103DA00080937A001092800210926D0210926C0241
:103DB0008091D70081608093D70080EA8093D800FB
:103DC00089B5806189BD89B5826089BD09B400FE6D
:103DD000FDCF61E070E080E090E00E94F905809105
:103DE000D8008F7C80618093D8008091E000807F34
:103DF0008093E0008091E1008E7E8093E1008DE071
:103E00008093E200559A209A8FEF9FEF90932C03B6
:103E100080932B03198241E050E0BE016F5F7F4F1A
:103E200087E993E00E94320989E793E00E94110E2E
:103E300089E793E00E94181BE0919202F0919302AF
:103E400082E08083E0918E02F0918F021082E091F7
:103E50009002F09191028FE0808310929A02E0919B
:103E60009602F091970286E08083E0919402F091AF
:103E70009502808180618083E0919402F0919502A7
:103E8000808188608083E0919402F0919502808126
:103E900080688083E0919402F091950280818F7D0B
:103EA00080831092B8031092B7031092B603109259
:103EB000B5031092B4031092B3038CE190E0909399
:103EC000BA038093B9038091A90328EF280F243007
:103ED00048F092EF980F943028F096EE980F9330B8
:103EE00008F057C041E050E05093B4034093B3034F
:103EF0004AE150E05093B6034093B5034BE050E0E5
:103F00005093B8034093B703243050F092EF980FCA
:103F1000943030F096EE980FF0E0E0E0933010F43B
:103F2000E8E6F0E09081243048F022EF280F2430BA
:103F300028F08A51F0E0E0E0833010F4E8E6F0E0A9
:103F4000916090832091A90338EF320F343048F00C
:103F500082EF820F843028F086EE820F833008F0E3
:103F6000E4C08BE690E09093B1038093B0033430CB
:103F700008F0DEC02450330B81E001C0880F2A9581
:103F8000EAF78093B2038091B9039091BA03019745
:103F9000F1F78091B7039091B803892B49F1E09133
:103FA0007002F091710223E0ED39F20709F13097C8
:103FB00039F0A389B4899C918589809589238C9354
:103FC0008091BB038E7F8093BB0310926F0210928F
:103FD0006E028DE993E09093710280937002E091FC
:103FE000B003F091B10380819091B203892B80835B
:103FF0001092A1031092A2031092A3031092A403A3
:10400000269A0E940F0E1FB7F894809172028111B8
:1040100027C0E0EEF3E08491EFEFF3E09491E82F16
:10402000F0E0EE0FFF1FEB55FC4FA591B491EC9122
:10403000E92321F461E081E10E94320561E081E140
:104040000E94A3058CB580618CBD8CB580648CBD4D
:1040500061E08FE00E94A30561E080E10E94A3057A
:10406000809172028F5F809372021FBF209A289AFC
:10407000259868E188E80E948A0E60E288E70E943D
:104080008A0E60E088E70E948A0E10E000E088E671
:104090000E94B20E0F5F1F4F80FF5DC061EC88ED84
:1040A0000E948A0E60E680ED0E948A0E64E088EE2F
:1040B0000E948A0E88EE0E94B20E82FFFBCF0E9401
:1040C0008E0F60E288EC0E948A0E61E080E80E9418
:1040D0008A0E4CEB53E060E08BEC93E00E94270CDF
:1040E0008E010F5B1F4F22242394312C83B1782F34
:1040F0007072F72E85FD0DC088EC0E94B20E85FF10
:1041000004C00E948E0F40E2F42E6F2D88EC0E94B6
:104110008A0E80918102813049F160F1823009F488
:1041200085C0833081F1F12C46C090E080E01BCF48
:1041300088E02E3009F425CF82E02F3009F421CF1A
:1041400084E0203109F41DCF81E0213109F419CF39
:104150002651330B11CF0F3F100709F098CF61E0C4
:1041600070E080E090E00E94F905B3CF83E1809396
:104170009C03D9CF80919C03807F8031A1F291E193
:1041800090939C03D0CFFF24F39480919C03807F75
:10419000803189F40E94540768537F4F8F4F9F4F9F
:1041A0006093730270937402809375029093760209
:1041B000A0E2A0939C0330E8632E34E0732E6301E9
:1041C000F601819191916F01009739F0DC01ED9139
:1041D000FC910680F781E02D0995B0EACB16B4E09A
:1041E000DB0671F780919C03803409F456C000F51A
:1041F0008032E9F1803309F44AC0813109F05DC0B1
:104200001092A004F301819191913F01009739F040
:10421000DC01ED91FC910480F581E02D0995C61437
:10422000D70481F782E180939C0347C0F12CADCF86
:10423000813509F48BC1803809F49BC18035E9F5DB
:1042400088EC0E94B20E86FF38C081E580939C0303
:104250000E9454076C5E7F4F8F4F9F4F6093730295
:1042600070937402809375029093760226C00E9428
:104270005407C0907302D0907402E0907502F090E1
:1042800076026C197D098E099F0997FD16C061E0C1
:1042900088EE0E948A0E80E4C6CF88EE0E94B20E9D
:1042A00080FD0BC088ED0E94B20E682F686088ED1B
:1042B0000E948A0EB0E5B0939C0382E892E00E94CF
:1042C0000304892B09F46FC2BE016F5F7F4F6B013E
:1042D000F12CE12C0E94540760938A0270938B02A8
:1042E00080938C0290938D0282E892E00E94E10319
:1042F00097FF2EC30E94540780908A0290908B02F1
:10430000A0908C02B0908D02681979098A099B09E6
:104310008090860290908702A0908802B0908902D7
:10432000681579058A059B05F8F2E1E0F0E0EC0FED
:10433000FD1FEE0DFF1D108280E1D8011D928A95B0
:10434000E9F767E072E0CE0101960E94F4254AE0A9
:1043500050E070E060E00E94D4244B013B0169E032
:1043600072E090E080E00E94F4254AE050E070E0C6
:1043700060E00E94D4246B012B0169E072E090E0C0
:1043800080E00E94F4254AE050E070E060E00E9486
:10439000D42463967FAF6EAF6397940197FE04C0F9
:1043A0002227332728193909C9016FE770E00E94D5
:1043B000DB26DB01161417040CF0D5C1EFE7F0E0A3
:1043C0006796FFAFEEAF679765961FAF0EAF659725
:1043D000F8018FE790E050E040E0B4016F577109B9
:1043E00069967FAF6EAF69977FE7870E911C6796DE
:1043F0006EAD7FAD67978217930764F0B401681BB9
:10440000790B1614170434F069966EAD7FAD699779
:10441000680F791F718360834F5F5F4F32968158B9
:104420009F4FA417B5071CF71296F80181E090E0A2
:10443000712C612C41915191640E751E0196A81743
:10444000B907C1F7D80111961C921E9213961C92BF
:104450001E92129715961C921E92149717961C92F4
:104460001E92169719961C921E9218971B961C92D4
:104470001E921A971D961C921E921C971F961C92B4
:104480001E921E97F60157FE04C0EE27FF27EC1977
:10449000FD09CF016FE770E00E94DB269FE7A92EA0
:1044A000B12C1414150424F081E8A82EBB24BA946E
:1044B000D80150E040E08FE790E046012FE7821AF4
:1044C00091082FE7C20ED11C8E179F070CF052C126
:1044D0001196BC92AE924F5F5F4F129681589F4FDC
:1044E000641775078CF76E5F7F4F41E050E090E0F6
:1044F00080E06596AEADBFAD6597ED91FD91659697
:10450000BFAFAEAF65978E0F9F1F4F5F5F4F4617D0
:10451000570779F740E0682F862D0E94C5066396FD
:10452000EEADFFAD6397379709F031C181E00E948E
:10453000310760E070E0672B09F4D8CD0E940F04CA
:10454000882309F4D3CD0E940000D0CD0E945407E7
:104550008090730290907402A0907502B0907602E1
:10456000681979098A099B0997FDA7CE80E880938D
:104570009C03F801108228E021836CE36283C090E1
:104580003004D09031041093310400933004F09241
:1045900034049E012F5F3F4F42E150E060E08AE229
:1045A00094E00E94E214E82ED0923104C0923004CC
:1045B000811154C0A984BA848B849C844D807E81EF
:1045C00062967FAF629720E8C22E24E0D22E512C53
:1045D000D6018D919C91009709F042C05394B2E0AE
:1045E000CB0ED11CE0E15E12F3CFF301808191810B
:1045F000009709F079C0E394F2E06F0E711C20E19E
:10460000E212F3CF8091300490913104892B09F4A8
:104610005BC0F092340420E040E060E08AE294E085
:104620000E94D70CD82E882309F44EC0682F8AE246
:1046300094E00E942C0D009709F446C0FC01F4821E
:104640006D2D8AE294E00E94B114E82E882309F4CB
:1046500088C06D2D8AE294E00E94B50C8E2D31C089
:10466000DC01ED91FC910084F185E02D099581112B
:10467000B5CFF60180819181DC01ED91FC9100883C
:10468000F189E02D62966FAD62970995882309F450
:10469000A5CFF60180819181DC01ED91FC9104842C
:1046A000F585E02DA401B5010995882379F06F2DDA
:1046B000852D0E942F10813D09F490CF882309F4A5
:1046C00050C0823D09F4F9CD80EAADCDF60180817C
:1046D0009181DC01ED91FC910684F785E02D642D3C
:1046E00009958111E4CF7ACFDC01ED91FC91008432
:1046F000F185E02D099581117ECFF30180819181B3
:10470000DC01ED91FC910088F189E02D62966FAD9E
:1047100062970995811109C06F2D8E2D0E942F106F
:10472000982F977F913D51F666CFF301808191815B
:10473000DC01ED91FC910484F585E02DA401B50127
:104740000995811158CFF30180819181DC01ED91B0
:10475000FC910684F785E02D642D09958823E1F20C
:104760004ACF80E960CD61E87FEF67967FAF6EAF9B
:1047700067972ACE7601E81AF90A141415041CF07A
:104780007401E80EF91E1196FC92EE92A4CE639687
:104790006EAD7FAD63976830710509F0CACE81E0D8
:1047A0000E942307C6CE8091C80480FDA5C0109248
:1047B0007E0210927D0281FDA4C010927C021092B4
:1047C0007B0283FDA3C010927A021092790284FDCD
:1047D000A2C01092780210927702D80111961C9212
:1047E0001E9213961C921E92129715961C921E9260
:1047F000149750E040E061E172E0C8010E94901718
:1048000060917D0270917E026115710509F488C086
:10481000CE0101960E94BB17BE016F5F7F4FC8019A
:104820000E948917CE0101960E9423176DE072E065
:10483000C8010E947F1760917B0270917C02611514
:10484000710509F473C0CE0101960E94BB17BE0129
:104850006F5F7F4FC8010E948917CE0101960E94A9
:10486000231767E072E0C8010E947F176091790208
:1048700070917A026115710509F45EC0CE0101964E
:104880000E94BB17BE016F5F7F4FC8010E9489174E
:10489000CE0101960E94231769E072E0C8010E94D0
:1048A0007F1760917702709178026115710509F4A4
:1048B00049C0CE0101960E94BB17BE016F5F7F4FBA
:1048C000C8010E948917CE0101960E942317F801A2
:1048D000448155816081718182E892E00E942103C8
:1048E00042E050E06FE072E082E892E00E94210333
:1048F000C8010E9423171DCE30927E0220927D02B5
:104900005ACF30927C0220927B025BCF30927A02A7
:10491000209279025CCF30927802209277025DCFAC
:104920006BE072E0C8010E947F1780CF6BE072E0FD
:10493000C8010E947F1795CF6BE072E0C8010E940A
:104940007F17AACF6BE072E0C8010E947F17BFCF2C
:104950008A32910509F4E9CCD6018D936D01BFEF40
:10496000EB1AFB0AE0E4EE16F10409F0B3CCDDCC5F
:1049700087E891E090939E0380939D03809170025D
:10498000909171028D59934071F4E091B003F091D0
:10499000B10390818091B203809589238083109226
:1049A0007102109270020895B0E0A0E0EAEDF4E226
:1049B0000C9496265C016B017A016115710519F062
:1049C000FB0191838083E114F10451F0C701029748
:1049D000839730F040E030E020E090E072C05E016C
:1049E000E5012196F5011081812F90E00E94EB25D1
:1049F000892BA9F71D3201F52196F501118101E0FE
:104A0000E114F10409F4DAC0F0E1EF16F10409F061
:104A100082C0103359F488818F7D883509F076C0C3
:104A2000198122960260F0E1EF2EF12C812C912C5D
:104A3000A12C88E0B82E8CC01B3221F4E50122960F
:104A4000F501118100E0DCCFEAE0EE16F10409F493
:104A5000BBC0F0E1EF16F10409F06DC0E7CF78E0DC
:104A6000E72EF12C812C912CA12C60E1B62E70C088
:104A70003FE9310F3A3128F439EA332E80C021E082
:104A80009AC0302F3170C114D10431F0222309F1C2
:104A90002197F601D183C08327FF21C060E070E039
:104AA00080E090E8311104C06FEF7FEF8FEF9FE758
:104AB00022E230E03093CC042093CB04462F372FF2
:104AC000282F642F732F822FCDB7DEB7E1E10C942E
:104AD000B22601FF04C02297F601D183C08333239D
:104AE00041F090958095709561957F4F8F4F9F4FC6
:104AF000E5CF97FFE3CF82E290E09093CC048093E0
:104B0000CB046FEF7FEF8FEF9FE7D8CF10E3E11477
:104B1000F10409F4A4CF28E0E216F10409F4A2CFCD
:104B20000CF092CF812C912CA12CE0E4BE2E82E0DF
:104B3000E816F10469F060E070E080E090E8970129
:104B40000F2C000C440B550B0E94682649015A019A
:104B500020E060E070E0CB0127010F2C000C66081C
:104B60007708FE0150ED352E310E39E0331540F453
:104B70003FEB310F3A3108F07BCF49EC342E310E48
:104B80003E141F040CF07DCF27FD15C08616970636
:104B9000A806B90678F0A30192010E945826630D79
:104BA000711D811D911D61307105810520E89207FD
:104BB00008F465CF2FEF21961081D3CF103309F47D
:104BC0002ACF2AE0E22EF12C9CEC892E982CA82CDE
:104BD0009CE0B92EBDCF91110C944526803219F07E
:104BE00089508550C8F7089549EC54E00E94F92592
:104BF0000895FA01A191B081009719F41097E1F09E
:104C0000CD01DC01CD010D90002011F4C00113C0D5
:104C1000FB012191222319F02015D9F7F3CFFB01D5
:104C20002191201519F41E92119606C02223C1F776
:104C30000D900020A1F7D001FA01A193B08308954F
:104C4000BB274A3031F4992322F4BDE29095819537
:104C50009F4F0C942C26BB27FB015527AA27880FB2
:104C6000991FAA1FA41710F0A41B83955051B9F7E0
:104C7000A05DAA3308F0A95DA193009779F7B1115F
:104C8000B1931192CB010C94482699278827089557
:104C9000DC01FC01672F71917723E1F7329704C0A3
:104CA0007C916D9370836291AE17BF07C8F308952E
:104CB000DB018F939F930E948A26BF91AF91A29FA1
:104CC000800D911DA39F900DB29F900D112408950A
:104CD000A1E21A2EAA1BBB1BFD010DC0AA1FBB1F00
:104CE000EE1FFF1FA217B307E407F50720F0A21B72
:104CF000B30BE40BF50B661F771F881F991F1A94DF
:104D000069F760957095809590959B01AC01BD0108
:104D1000CF0108950E94CC26A59F900DB49F900DC1
:104D2000A49F800D911D112408952F923F924F92C0
:104D30005F926F927F928F929F92AF92BF92CF922B
:104D4000DF92EF92FF920F931F93CF93DF93CDB734
:104D5000DEB7CA1BDB0B0FB6F894DEBF0FBECDBFAC
:104D600009942A88398848885F846E847D848C847D
:104D70009B84AA84B984C884DF80EE80FD800C8186
:104D80001B81AA81B981CE0FD11D0FB6F894DEBF69
:104D90000FBECDBFED010895A29FB001B39FC0012A
:104DA000A39F700D811D1124911DB29F700D811D57
:104DB0001124911D089597FB072E16F4009407D037
:104DC00077FD09D00E94F52607FC05D03EF49095AA
:104DD00081959F4F0895709561957F4F0895EE0FCF
:104DE000FF1F0590F491E02D0994AA1BBB1B51E114
:104DF00007C0AA1FBB1FA617B70710F0A61BB70B4B
:104E0000881F991F5A95A9F780959095BC01CD01EF
:104E100008950F931F93CF93DF938230910510F481
:104E200082E090E0E091CF04F091D00430E020E007
:104E3000B0E0A0E0309799F42115310509F44AC09B
:104E4000281B390B24303105D8F58A819B816115E7
:104E5000710589F1FB0193838283FE0111C04081BA
:104E600051810281138148175907E0F0481759070B
:104E700099F4109761F012960C93129713961C9365
:104E80003296CF01DF91CF911F910F91089500933A
:104E9000CF041093D004F4CF2115310551F04217FF
:104EA000530738F0A901DB019A01BD01DF01F801C8
:104EB000C1CFEF01F9CF9093D0048093CF04CDCF31
:104EC000FE01E20FF31F8193919322503109398340
:104ED0002883D7CF2091CD043091CE04232B41F4E9
:104EE00020911701309118013093CE042093CD0406
:104EF00020911501309116012115310541F42DB78E
:104F00003EB74091190150911A01241B350BE091D5
:104F1000CD04F091CE04E217F307A0F42E1B3F0B53
:104F20002817390778F0AC014E5F5F4F241735071B
:104F300048F04E0F5F1F5093CE044093CD048193F1
:104F400091939FCFF0E0E0E09CCFCF93DF93009769
:104F5000E9F0FC01329713821282A091CF04B09144
:104F6000D004ED0130E020E01097A1F420813181E0
:104F7000820F931F2091CD043091CE04281739075A
:104F800009F061C0F093CE04E093CD04DF91CF919E
:104F90000895EA01CE17DF07E8F54A815B819E019B
:104FA00041155105B1F7E901FB83EA834991599114
:104FB000C40FD51FEC17FD0761F480819181029623
:104FC000840F951FE90199838883828193819B8354
:104FD0008A83F0E0E0E012968D919C911397009700
:104FE000B9F52D913C911197CD010296820F931F37
:104FF0002091CD043091CE042817390739F6309727
:1050000051F51092D0041092CF04B093CE04A09327
:10501000CD04BCCFD383C28340815181840F951FBF
:10502000C817D90761F44E5F5F4F88819981480F97
:10503000591F518340838A819B81938382832115E9
:10504000310509F0B0CFF093D004E093CF049ECFA8
:10505000FD01DC01C0CF13821282D7CFB0E0A0E007
:10506000E4E3F8E20C9497268C01009751F4CB010D
:105070000E9409278C01C801CDB7DEB7E0E10C948E
:10508000B326FC01E60FF71F9C0122503109E217FD
:10509000F30708F49DC0D901CD91DC911197C61793
:1050A000D70798F0C530D10530F3CE0104978617A5
:1050B000970708F3C61BD70B2297C193D1936D9323
:1050C0007C93CF010E94A527D6CF5B01AC1ABD0A05
:1050D0004C018C0E9D1EA091CF04B091D004512C98
:1050E000412CF12CE12C109731F58091CD04909159
:1050F000CE048815990509F05CC04616570608F0DD
:1051000058C08091150190911601009741F48DB718
:105110009EB74091190150911A01841B950BE81715
:10512000F90708F055C0F093CE04E093CD04F901DF
:1051300071836083A0CF8D919C91119712966C9092
:10514000129713967C901397A815B90559F56C0121
:1051500042E0C40ED11CCA14DB0420F1AC014A1990
:105160005B09DA011296159780F06282738251838F
:105170004083D9016D937C93E114F10471F0D70160
:105180001396FC93EE93129776CF22968C0F9D1F69
:10519000F90191838083F301EFCFF093D004E09382
:1051A000CF0469CF4816590608F42C017D01D301BC
:1051B0009ACFCB010E9409277C01009749F0AE01EC
:1051C000B8010E94F028C8010E94A527870153CF8B
:1051D00010E000E050CF81E090E0F8940C940729B3
:1051E000FB01DC0102C001900D9241505040D8F704
:1051F0000895DC0101C06D9341505040E0F70895DF
:10520000FB01DC0101900D920020E1F7089512E00E
:10521000C3E2D2E004C0FE010E94EF262196C43210
:08522000D107C9F7F894FFCF94
:10522800FFFFFFFF00E100000000000000C18081D7
:105238000000001F010000D104800000000000C62B
:105248000FC30FBE0F00000000AF0A0000000044AB
:10525800042103D20390040304E103F503000000D2
:1052680000B0043E07D104C6041805D604F40400AF
:105278000000006007D507B807C1090E1BF6FF003C
:105288000004092103430DAE0A110E181B22080061
:10529800000000350975095809C1092D09F6FF00F4
:1052A80000320900000000E0092103430D7B023CA5
:1052B8000A520AC80900000000C90F0000000008CF
:1052C800155F0EF00B3F12530E5E0E5C0E5A0E5811
:1052D8000E090C270C560E480C500E1B1B2117FEEE
:1052E800FF0000D51B0000000008155F0EF00B73CF
:1052F80011530E5E0E5C0E5A0E580E090C270C56F2
:105308000E3B0E500E200E4E0E3A0EFEFF000030E1
:105318000E000000002C0DD70CB50C000000004654
:105328000DBF0D840D690D3A003B0030002C000DB7
:025338000A0069
:00000001FF
